:201C000010CE10004F1F8B4F8680B7DF508682B7DF518684B7DF528603B7DF53860BB7DF28
:201C20005CBDFDA5BDFD9A863EBDFDBABDFDCBBDFDBA8144271E814C2717814D273F81504A
:201C400027528147272C863FBDFDBABDFD9A7EFC247EFCA6BDFD95BDFD373410BDFD95BD15
:201C6000FD373510BDFD9ABDFCE0BC01042BF87EFC24BDFD37BDFD95BE01046E84BDFD3796
:201C8000BDFD95BDFD93BDFD45301FA784A18426477EFC2410FF0100BE0100C609BDFD9314
:201CA0005A26FA7EFC24BDFDCB815326F9BDFDCB81392729813126EE7F0102BDFD4580023C
:201CC000B701038D72BDFD457A01032706A784300120F27C010227CE863FBDFDBA7EFC24E7
:201CE000BDFD7CBDFD953410C610BDFD935A26FA3510BDFD95863ABDFDBAC610A600812099
:201D00002B0A817F2A06BDFDBA7EFD11862EBDFDBA30015A26E6BDFD9A39BDFDCB3402BD9A
:201D2000FDBA350281302BB581392F0A81412BAD81462EA98007398D0CB701048D07B70198
:201D400005BE0104398DD3484848481F894D8DCA840F3404ABE01F894DFB0102F70102393A
:201D600044444444840F8B30813923028B077EFDBAA6008DEBA6008DEB300139341035023E
:201D800034028DDC35028DDC350234028DD235028DD2398DDC86207EFDBA860DBDFDBA8698
:201DA0000ABDFDBA398680B7DF5B860CB7DF588600B7DF598603B7DF5B393402B6DF5D8421
:191DC00020810027F73502B7DF5839B6DF5D8401810027F7B6DF58393B76
:0E1FF200FDD8FC00FC00FDD8FC00FC00FC004B
:00000001FF
