:03000000020006F5
:03005F0002000399
:0300030002006296
:100062007590FF12007075900012007080F27E0091
:100072007F007CFF7D00EC24FFFAED34FFFB8A0455
:100082008B05EA4B70F00EBE00010FC3EE94FFEF3A
:070092006480948040DC2231
:06003500E478FFF6D8FD9F
:100013007900E94400601B7A0090009D780175A087
:1000230000E493F2A308B8000205A0D9F4DAF2754C
:02003300A0FF2C
:10003B007800E84400600A790175A000E4F309D860
:10004B00FC7800E84400600C7900900001E4F0A318
:04005B00D8FCD9FAFA
:0D000600758107120099E582600302000376
:04009900758200224A
:00000001FF
