:1000000009C023C020C038C01EC01DC01CC01BC0FA
:100010001AC019C011241FBECFE9CDBF10E0A0E661
:10002000B0E0EAECF0E003C0C89531960D92A0363E
:10003000B107D1F710E0A0E6B0E001C01D92A036F4
:10004000B107E1F72BC000C018951F920F920FB6B1
:100050000F9211248F93F894C29A84E482BF88B7D8
:10006000826088BF89B7826089BF78948F910F9032
:100070000FBE0F901F9018951F920F920FB60F9200
:1000800011248F93F894C29889B78D7F89BF789493
:100090008F910F900FBE0F901F901895CFE9D0E071
:1000A000DEBFCDBF8FEF87BB88BB85B7877E85BF9F
:1000B00084E083BFB998C29885B78C7F826085BF82
:0A00C0008BB780648BBF7894FFCFEC
:00000001FF
