:020000040000FA
:200000000208600220038E828F832202200BAE82AF8322022013742D01760002201B11764B
:20002000017400022023111601740002202B216A0176016A216721792186018D01D121BAAC
:20004000219A0208F6020B1501800201A7020A5E020A64020AA202082202079F0207C10270
:2000600007F80209DD214D0207DF3098FDC298E59922117474203099FDC299F59922118009
:20008000C0E0740D1176740A1176D0E022C2D51162319AB41B03D3E422B40D05D2D5C3E44D
:2000A00022FA314D40E9CA11761162319AB41B0280E4B40D03EAC322B40804117680D0B4DB
:2000C000150280F7FB314D40E0CB1176EAC44BC3227A007B007C04C2D51162319AB41B07A9
:2000E000D3E4F583F58222B408028003B47F0CBC040280E51176313C0C80DEB40D108B8354
:200100008A82BC0407E4F583F582D2D5C322FD314D40C6CD120076EDC0E0312BD0E02AFA1A
:20012000E43BFBDCB4C38A828B8322EBC454F0FBEAC4540F4BFBEAC454F0FA22EAC4540FB2
:20014000FAEBC454F04AFAEBC4540FFB2224D0501424F64004240AC32224F9500824FA40A3
:20016000042410C322D3223169C4C0E0540F2490D43440D41176D0E022C0E0E5833167E55E
:20018000823167D0E022C0E0E493A3600AA2E7547F1176400280F1D0E022B461004007B4D7
:2001A0007B00500224E0227800C0E0E4936008A2E7084003A380F4D0E022C0E0C330980865
:2001C000E599B41B01D3C298D0E022900DB61145EF3167EE316731861162B43A0451B88077
:2001E000EA319A75F0CBC0F075F001C0F0F5F0901000F1F85024758204E493B4FE150582B2
:20020000E493B5F00E117475822031861180758240E4730583E583B480D8E5F0B43F0790E7
:200220000F1E1145A1C7B44D07900F26114581B8B45207900F2B1145A12FB44407900F2FAD
:200240001145419BB45507900F321145C13CB44E07900F351145E12EB44A07900F391145C3
:20026000810DB44807900F3F11458141B44507900F4B11458182B44307900F501145E10A86
:20028000B45A0B74006012900F541145E13EB44908900F4511450207640180900E50114586
:2002A0009104116AB41B028078B43A028010314D40F07906713380EA745E11769104790043
:2002C00071337C007152F8742E11767152F5837152F5827152B40102802D7022E86014711F
:2002E00052FA79017133EA120822E43402F97133A3D8E97152EC60AA7904713380A4E8600D
:20030000F27152D8FC80ECE860047152D8F37152EC70E5712A900E6F114530987A116A80CF
:2003200076712A900E671145806D78007900D9FED8FA22E95407232410F907E770020907A4
:2003400022D3878209878309E5827005E5837001C322116A319AB41B06D0E0D0E080C2B478
:200360003A0A79057133D0E0D0E041C2314D50067907713380DCFA116A319AB41B0280D9F6
:20038000B43A0280DD314D50067907713380E8CAC44AFA2CFCEA22EEC0E0EFC0E0900E7679
:2003A000114579107E7F7F0E91007E857F0E91007E8A7F0E91007A0571414009DAFA900E10
:2003C000C611458025900E95114579167E997F0E71F27EAA7F0E71F27EB27F0E71F27EB8CF
:2003E0007F0E71F27EBD7F0E71F2D0E0FFD0E0FE0180714150091174120AA2110611452227
:20040000714180F27810760008B820FA22900DF8114511063179900DC6114511D120D5067C
:200420005002E105110E1180900ED411451106E4F5D0F5F07807F6D8FD758108C0E0C0E0DF
:20044000737A10117E11063179743A111E7B101106E493A331671174DBF711727B101106A2
:20046000E493A3547FB47F01E424E04001E424201176DBEC1180D1C1110E31BA4002DAC5AE
:200480000180900E3A114511063179743A111E74281176110EE4933167900E131145118D19
:2004A00020D510400E110612082211801106A3110E8189900E450145900E02114578151165
:2004C00074D8FC1145758310F1F8400201801172758220318675822031A77421C398F8742E
:2004E000201176D8FC7582003179780674201176D8FC758204E493AA83B4FE05900F0C80F2
:2005000018B4FD05900F138010B42305900F108008B4F90280EE900F1A11458A831180747A
:200520007FB5830281CC0583E583B4809B81CC117E7AFF90100015830583E583B4800280C3
:2005400021F1F8501D758204E4934403F460E911720A74412A111E112675822031861180FD
:20056000A138BAFF05900DCF0145900DC1114574411176111674412A1176900DC6114511EB
:2005800062B41B020180FB741FC39AEB4002319A1176FB1180EB24BF50D0FBEAC39B40CA76
:2005A0000B90100015830583E583B480028017F1F85013758204E4934403F460E9DBE71126
:2005C00080758240812F22900EF411457C3F900F21D1317C4DD1317C52D1317C44D1317C54
:2005E00055D1317C4ED1317C4AD1317C48D1317C49D1317C45D1317C43D131740060047CAB
:200600005AD131900F021145901000F1F85020758204E493B4FE1111720582E49311761140
:2006200026758220318611800583E583B480DC01801172EC1176112611450180D1D3900E6E
:20064000DE1145EB3167EA31671145ED3167EC316711808D838C82A3AC82AD83900DEE11B6
:2006600045116AB41B02E10311808A828B83ECC39582FAED95837009EA603254F07002806A
:20068000027A10743A1176EA31673179E58325822AFBE43167E49331672BFBA3DAF7EBF435
:2006A0000431671180D1C131BA50C38056743A1176E431673167316704316774FF3167011E
:2006C0007EE8C0E0780CE58C04000070FBD8F7D0E0F822117E900E1C114511D1402120D540
:2006E0001EC083C0821180900E26114511D1AD83AC82D0E0FAD0E0FB400520D5020180D08A
:20070000E0D0E01180900DAE0145D1D3900E3011451162319AB459EB117E8B838A82E4128A
:200720000822EDB58305ECB5820122A380F0900DE5114511D140CE20D5CB110E017E117E57
:20074000900F541145742C111E900E3011451162319AB459AE117E1207C1900F5950039020
:200760000F600145118078001180B880020180E83167743A11761174E6316708E8540F70F4
:20078000F580E5C0F0E493F5F00DE493B5F0F8D0F02290D55574AAF090AAAA7455F022C8A1
:2007A000C0E0C082C083F19290D55574A0F0D083D082E8F0F183E493C3686001D3D0E0C894
:2007C0002290D5557410F1DF908000E493F4700DA37400B582F57400B583F0C322D322C078
:2007E000E0C082C083F19290D5557480F0F192D083D082D0E0F0E183758200E493B4A51769
:20080000A3E493B4E511A3E493B4E00BA3E493B4A505758200D322747FB58302C32205835D
:2008200080D6C0E0C0F0F5F074006010E583B4FF0280225007B48002801B5019E5F0F0E450
:2008400093C395F06009E0C395F06003D38001C3D0F0D0E022E5F012079FD0F0D0E02232CF
:20086000E4F5A8F5B875D000115F115FF4F580F590F5A0F5B075813079C87AF9DAFED9FA78
:20088000740060137400600F78FAA20079C8D9FE4005D8F61207C175F0F911C911F675F0D1
:2008A000FD11C97818120080D8FB780F7420120076D8FB900D77120B15900D90120B15123F
:2008C00004B87E007F200201CB9010001207F85024758204E493B5F015C0F0C08374EAC00F
:2008E000E07408C0E0758240E473D083D0F00583E583B480D72274D07014E57B637A556381
:2009000079CC63781DB57A08B57905B5780221BC758780759842758911E4F588F58AF58CE9
:20092000F58BF58D78C8791E30B0E5D9FBD8F720B0FD20B0FA20B0F720B0F420B0F130B0B3
:20094000FDD28E208FCA20B0FA208FC430B0FA208FBE20B0FAD28C208FB630B0FAC28EC2C4
:200960008C208FACE58B33F5F0E58D3340A2A2F73400F404609AF58D758BFF758921D29CB4
:20098000D28EE58DF404F978FFD8FED9FA309811C298E599547F24F66007240560030209D8
:2009A00010E58A33F8E58C33F940F3E833F5F0E933A2F7340060E7F404B58DE2F57BF57A92
:2009C000F579F578637A556379CC63781DF58DF58B758921758780759852D28E223098061E
:2009E00012006AB41B5112006AB41B4B514B209803741B2212006AB45B44514B3098DE129A
:200A0000006AB44103740B22B44203740A22B44303741522B44403740822B435028007B4D6
:200A2000360280028018C0E0514B30980B12006AB47E09D0E024E422D0E080A1D0E0514BA7
:200A400030989A12006AB41BF580A1EAC0E07A14E58C2098050470FADAF6D0E0FA22C0F0D3
:200A6000C0E08013C0F0C0E030E70C742D120076D0E0C0E0F4240175F06484D2D56007C221
:200A8000D52430120076E5F075F00A8430D50260052430120076E5F02430120076D0E0D064
:200AA000F022C0E0E8C0E0C2D5AA82AB837C107D27710060072430120076D2D57CE87D039C
:200AC0007100700330D5072430120076D2D57C647D007100700330D5072430120076D2D5D3
:200AE000EAABF075F00A84700330D5052430120076E5F08BF02430120076D0E0F8D0E0227F
:200B0000780008C3EA9CFAEB9DFB50F618EA2CFAEB3DFBE822C0E0E8C0E0E9C0E0ECC0E0B7
:200B2000D2D1D2D5E493A3602520E72E547FB40D07120080D2D180ECB41F04C2D580E5B4D4
:200B40000E051200808007C2D112007680D6D0E0FCD0E0F9D0E0F8D0E022547FF820D1036A
:200B6000120074C2D1C082C083900BCF7C00E86007F971BE70FCD9FA71BE603CB40F12712A
:200B8000BE0483801E68667767796278766B716A7A0483800E657461726E69736F6C756D75
:200BA000706463A2D592E5D2D5B81402C2E5B80C02C2E512007680C0D083D0826124E4931E
:200BC000BC00057CFF540F227C00A3C4540F228290E82386054CF844B3B0B1485FF0117F81
:200BE000A0157F1C2ED1405A50F103BFBA0C2F96018D3F95380D6F5F1207710E562F483B69
:200C00006258201F7670322440B840E1618F01340BCA89D3C0A3B9588004F80285602591A3
:200C2000F092731F107F12549310444807D126564FD0F66472E0B83BD5F0164F56306F4803
:200C4000025FA8201F017630D5602541A42C60056F013F261F30078E1DF06399F042B82009
:200C60001F2330027AD1602FF0F6058F931A5028F082046FA30D3F1F514023013E05430158
:200C80007A01176493302A088C243099B0F31960254135098ECB191230051F311D04144FA3
:200CA000761204AB279056012FA8D5F0AA26205F1CF0F361FE0141730127C1C0848FD6015E
:200CC0008770564F19701FA8D99076021743FE01C1840B157F028B14308F63396F19F01185
:200CE000C9106D023F91097A41D0BA0C1D395F07F2111720416B3509F775120BA7CC48025C
:200D00003F6412A00C27E39FC014777011407121C0682541F0627FD1D021E16258B0F305C7
:200D20001F733077B16F19E01943E0582FF6A414D02303FE31F5143099F8033F6422516088
:200D400025412FE30156279309FE11FE79BA607542EA6258A0E51F534FD1C0A3094253F7F7
:200D60001204621B30F505F7690C351B70822F2F144F51C064250057656C636F6D658094CD
:200D8000322076322E312C2062791FF81FFE0D0E202053656594322E444F432C94322E45F8
:200DA0005155A494322E484452B4D58D2E0E201F9E1FA0210D0E9432204C6F633A00203E51
:200DC000A086CA822800292C958C80C83A20001F9782C373C7A6832CBA204A554D508086BB
:200DE000A172820D0E0D0D1F8783813A20001FE4FB206B65793A20000D0D1F8880838120FF
:200E000028000D0D1F821FFD001F8120202020201FC90E29201F871FB23A200046697273EF
:200E2000741F813A20004C6173741F813A2020001FB9A120737572653F000D0D1F9C9A92FE
:200E40002C8C80C80E20201F9CC12C8E81F70D0E0D0D1F9F206173636969F9961F98848927
:200E60002C958C80A00D0E0D1F8AA065640D0E0D1F8AC1640D0E53756D6D6172793A0E2064
:200E8000C67391640E208B91640E208B207772697474656E0E1F9B3A0E208B20756E61620F
:200EA0006C65802077726974650E2020626164F5730E20859F96C60E2085849D0E20852064
:200EC0006E6F6E849D0E1F979B2064657465637465640D0E0D866E696E67823A0D0E0D0D9A
:200EE00053656E64696E671F988489AC20200020802020000D0D5374616E646172641F9E92
:200F0000730E1FDA1FF465641F9E730E1F9A9E001F82001F8F1FE21FAA003F3F3F001FD71A
:200F2000001F8ED7D1001FD18273001F8682001F8A001F93001F8781001F88808381001F84
:200F400084DB9A83001F84DBC083001F9C9A92001FED83001FCB9990001F9990CB640D0E39
:050F60001F859B0D0E32
:20100000A5E5E0A5FE4C00000000000000000000000000000000000000000000FFFFFFFF7B
:081020004C69737400020048E2
:2010400011257D14C2D1114CDDFC0125EFF583514FEEF582514FE493FAA3E493FBA3E4932E
:20106000FCEA5408700FEA035478F8EA5407489016C8938008EAC4540F901362935403F8F0
:201080002EFEEF3400FF743A512A719D20D121EA514F719DB80104790B8011EB514F719DB6
:2010A000B8020479088005EC514F7906719DD9FCEA54087010901748EA035478F8EA5407D3
:2010C0004893F980099017C8EAC4540F93F9901EFE7808C374204007E99309A2E7547F51AB
:2010E0002AD8F1741BC0E07411C0E0EA5408700FEA035478F8EA5407489016C8938008EA33
:20110000C4540F9013629354FC03031490111D232582F582E43583F583E4730125412D4167
:201120003C21812172414841044152415821A221D7415E4169416D4108411021AA21832168
:201140007441714177417D413E411C418121DF411441C54185418B41914195419B41A941B9
:20116000AF41B541BB410C41BF41CB41D741E741ED2231F67440512A7452512AEA540141CE
:201180004531F6EB20E703EB414F9012F5E493A360F5F8C39B7003020038E493A330E7FA3F
:2011A00080EB511031F8742F512AEB547823C4F8EB54806014901372E893901F933582F5D5
:2011C000825002058331978005E82420514F742E512AEB5407414531F6318331F8ECFBEBDB
:2011E0002EF582EB20E703E48002E4F43FF5830200367440412A5108742C512A7420412A96
:201200007423412A318331F87441412A31AA31F87443412A31F25108742B512A7444512AE0
:201220007450512A7454512A7452020030EF54F8F8EAC403540748514FEB414F31F67452A5
:20124000512AEA540702002E510831F85100EB0200343183ECFB414A511031F821AA5108D6
:2012600031F85100EB514F21DB513E41603174416051087442412A513E31F821DF318321F0
:20128000DB31AA21DB513E31F84108513E31F82183513E414A318331F8413EEBC0E0ECFB57
:2012A000318331F8D0E0FB2183318331F82174317431F84108317431F821833174414A5186
:2012C0001C31F85100EB514FEC414F31F631F25108742B512A411C31F631F25108742B51C4
:2012E0002A7450512A411031F631F2411C31F2511C31F84108E04143C38153D0824450CCDE
:20130000834450C88050B09050B1A050B2B050B399534255C6CD5448B2C85432434FCECCAA
:20132000544CB2CB5243415032C8CA5243415032CC8C5448B08A544CB08D5448B18B544CCB
:20134000B1F0C2D05053D7A849C5B849D089544D4FC48854434FCE9853434FCE8750434F2C
:20136000CE00595909090909097A7E09763309520971000206080C0E101214161B1E20234F
:201380002425F8F0E493C398227950E58DF404F8D8FED9F722514F743A412A514F74204107
:0113A0002A22
:20140000A5E5E0A5FE5300000000000000000000000000000000000000000000FFFFFFFF70
:0C14200053696E676C652D537465700095
:2014400030B306901D85020045900013E49324FE6005901DA88146A393F8E4A393F5828826
:201460008374027182700EA3741471827007A374EF71826011A882A983901DB59146E9513A
:201480004FE8514F0125E5B85404F5B8901D689146EF514FEE514F901D52914612003C2060
:2014A000D50D5007901D7131970125AE82AF83C28A901DC49146901EBC3197E4758108C01D
:2014C000E0C0E08E828F83F5D0F8F9FAFBFCFDFEFFF5F0757CDD757D14D2AAD2AF737189A6
:2014E000D0E0F9D0E0F8D082D083D0D0D0E032C0E0C0D0C083C082E8C0E0E9C0E07189D2E2
:2015000099719D719DE58124FBF8E6719BE5F0719B08E62354015145719D08E6514F08E640
:20152000719B719D08E6719508E67195EA7195EB7195EC7195ED7195EE7195EF719B719DE6
:20154000E824F8719B719D719DE57C8E7CFEE57D8F7DFFEAC0E0EBC0E0ECC0E0D2D1114CE8
:20156000D0E0FCD0E0FBD0E0FAAF7DAE7CE58124F9F8E6F57C08E6F57D120062120040B468
:201580000D0281DEB4200281DEB43F07901E359146A179B45113901EB53197C2AA718975BC
:2015A000080075090075810932B44802A1CDB45202A1FDB45302C167B44102C1AAB42E07E6
:2015C000901EBC3197A179A179743D412A901E033197E47195719DA88118E6719B08E651A6
:2015E0004F7802790EA1ECE871957910719DE6514F08D9F81125B880EE1125A17990134497
:201600003197B1C9E58124FCF8E6719B901348A8A8D16090134BA8B8D16090134EA889D13A
:2016200060901353A888D160901358A898D16090135DA887D1607454512A7430512AB1C94B
:20164000E58C514FE58A514F719D7454512A7431512AB1C9E58D514FE58B514F1125A1790D
:201660003197B1C9E8619B7817719DD8FC901DEB3197E58124F9F8E68E7CFE08E68F7DFF11
:20168000EAC0E0EBC0E0ECC0E0D2D1114CD0E0FCD0E0FBD0E0FAE58124F9F8EEAE7CF57CA4
:2016A000F608EFAF7DF57DF6A179E58124FBF8901E25319712003A400820D505F61125A11C
:2016C00079901D713197A179AD066F393946494963066F39394649496306AD39160E11116E
:2016E0006306AD39160E111166061A1F160E111166061A1F160E111166061A1F160E111194
:2017000066062269161F9292660622A14D8386869B06969D160E11112606225D4DAD8E8E93
:201720002606423D2F2B37374606423D390E11114606423D39571111A5061111390E11114F
:20174000A9068989391A89895A0E48732B2B2B2B30004375212121212E0E676E06060606FF
:2017600038006A700A0A0A0A330E5D5D5D5D5D5D3B00121212121212410E8F8F8F8F8F8F70
:201780003E005D354C4C4C4C7C0E124F244C4C4C4C004C4F808080805D0E4C2B57924C4C0C
:2017A00012001C1C15151515630E191984888888600078781F278B8B530E5353194C4C4C1C
:1817C000530053531C4C4C4C2B21060A5D128F4C4C804C1588274C4CFE
:20180000A5E5E0A5FE4500000000000000000000000000000000000000000000FFFFFFFF7A
:161820004D656D6F727920456469746F7220285654313030290006
:201840007C0051C6ECC2E3FC1200623119B41B02618DB40B024124B40A02414BB40802417A
:2018600066B415024195B40C0451C60144B41102618DB4030FEC54FEFC71CF901D36B14672
:2018800051E10144B4040FEC4401FC71CF901D3BB14651E10144B4070221ECB4050221E0C1
:2018A000B406022159B4010FEC30E198D2E2FC9154916471210144B4180FEC30E186C2E236
:2018C000FC9154916471210144B419024141B41A024146F5F0EC20E102014430E210E5F0A3
:2018E0007198B5F0F48F838E821200564195E5F012004012006540E1F88F838E82EC20E31E
:201900000AE8FDECD2E3FC71210148EDC454F028120056ECC2E3FC4195C0E0EC20E106C223
:20192000E3FCD0E02230E3F9D0E0C0E012004012006550EED0E0C0E0B41B0EECC2E3FC7168
:2019400021D0E0D0E0D0E001448F838E82ED120056ECC2E3FC712180C9EC54027002014439
:201960009154ECC0E09019C2B14C12003C404820D545A882A9839019D2B14612003C4037F1
:2019800020D534AC82AD839019DBB14C12003A402620D523FAECFEEDFFD0E0FC88828983E3
:2019A000EA120056EEB5820CEFB583089154916451E10144A380E9D0E0FC91549164712100
:2019C000014446696C6C1F833B2046697273743A200020204C6173743A200020A83A20008C
:2019E0009154EC6402FC9164712101449154901A1DB14CECC0E012003CD0E0FC401320D571
:201A000010AE82AF8371CF741471D5916451E1014471CF741471D59164712101441F831F3F
:201A2000813A2000714DEEC39410FEEF9400FFEEF454F06008740171DD7169014451E10195
:201A4000441F51E101440F51E10144714DEE2410FEEF3400FFEE54F06008740171D57169F7
:201A6000014451E10144714D740371E5EEC39401FEEF9400FFEE44F0F4600471690144EED2
:201A8000F454F0600C743071ED740171DD7169014451E10144714D740371ED8E828F83A3EF
:201AA000AE82AF83EE540F600471690144EE54F0600C743071E5740171D57169014451E14C
:201AC00001447420A140901CFCB146913BB1499118B1499132B149741071D59132B149916F
:201AE0006471CF740271D57582008F837810B149120036743AB140AA82AB8351C271AAB1DB
:201B000043A3E582540F70F38A828B8351C251C251C271AA7198B140A3E582540F70F3D8A2
:201B2000CD71CFEEC4540F240371D5EE540F243871ED71F571B37198B1409101EE540F2381
:201B4000F4243471E571F571B3B1438101EE540F23F4243171ED71B37198B140EE540F2336
:201B6000F4243471E571B3A143EE540F23F4243171ED71B3719871F5B1409101EE540F2316
:201B8000F4243471E571B371F5B1438101EE54F0C4F4241371D5A149547FB47F0374202293
:201BA000C3942050027400242022EC20E003E49322E022C083C0828F838E82EC20E30D2035
:201BC000E004E4938001E0D082D08322ED80F8910B7448A140910BB14F7442A140910BB164
:201BE0004F7441A140910BB14F7444A140910BB14F7443A140901BFAA1461B5B303B376D86
:201C000000901C06A1461B5B306D00C0E0741BB140745BB140D0E022901D04B146780051F5
:201C2000C2742BB140E812002E08B810F2901D0AA1467848742DB140D8FA22EC20E0059003
:201C40001D368003901D3BB146780851C2D8FC901D1EA14C71CF741471D57A4851C2DAFCF7
:201C6000744861E5EC30E112901CBC20E203901CD7B146901CF2B1468005901CB4B146906B
:201C80001C84A14620205E473D476F746F20205E433D436F646520205E443D4461746120B0
:201CA000205E4C3D52656472617720205E513D51756974005E452D45646974005E413D1B9C
:201CC0005B303B376D41534349491B5B306D20205E583D486578005E413D41534349492061
:201CE000205E583D1B5B303B376D4865781B5B306D0020205E463D46696C6C001B5B481B93
:201D00005B324A00414444523A002020204153434949204551554956494C414E5400383044
:201D200035311F9A1F831FD86F722C1FF81FFE2C203139393600434F444500444154410050
:201D4000020030020034020038020048020045020050292C206F72203C4553433E20746F30
:201D600020657869743A20000D1F8880838120280020436F6D6D616E642041626F72746553
:201D8000642E0D0A000DA1C520636F6E6E65637420494E5431202870696E20313329206C19
:201DA0006F7780BACFCC0D009432B3C7AE8120303031330D001FB8B3FFA520766563746F8C
:201DC00072AE20000D4E6F77866E696E67A6CFCC206D6F64653A20203C5245543E3DCC2C36
:201DE000203F3D2048656C700D0D00536B697070696E6720496E737472756374696F6E2D50
:201E00003E20000D0A4C6F633A2020496E742052414D204D656D6F727920436F6E74656E6A
:201E200074730D0A004E6577204163632056616C75653A20000D1FCF1FCC1F9E3A0D3C5264
:201E400045543E2086D4F60D203C53503E2086D4F60D20273F272020FF8ED70D20272E277A
:201E60002020FFC4FD730D202752272020FF207370656369616C2066756E6374696F6EC498
:201E8000730D20274827202084DBC0920D202753272020FCD4F60D202741272020F0A22099
:201EA0004163632076616C75650D202751272020C8CFCC0D0E517569740D0A0020204143D6
:201EC0004320422043204450545220205230205231205232205233205234205235205236FD
:201EE00020523720205350202020416464722020496E737472756374696F6E0D0A004143FE
:201F0000414CCC004144C400414444C3414A4DD0414ECC434A4EC5434CD24350CC44C144E7
:201F200045C34449D6444A4EDA494EC34AC24A42C34AC34A4DD04A4EC24A4EC34A4EDA4AE6
:201F4000DA4C43414CCC4C4A4DD04D4FD64D4F56C34D4F56D84D55CC4E4FD04F52CC504F34
:201F6000D0505553C85245D4524554C952CC524CC352D25252C3534554C2534A4DD0535598
:201F800042C2535741D05843C8584348C45852CC3F3FBF50B054434FCE50B153434FCE500D
:191FA000B249C550B349D043B05432434FCE5053D744B84143C3FDC2FEF9
:00000001FF
